{
  "address": "0x2d259c6C1A7aCB410326Ca662a26Ca3fDDb890BA",
  "abi": [
    {
      "inputs": [
        {
          "internalType": "uint256",
          "name": "_maxLockDays",
          "type": "uint256"
        }
      ],
      "stateMutability": "nonpayable",
      "type": "constructor"
    },
    {
      "anonymous": false,
      "inputs": [
        {
          "indexed": true,
          "internalType": "address",
          "name": "pair",
          "type": "address"
        },
        {
          "indexed": true,
          "internalType": "address",
          "name": "tokenLocker",
          "type": "address"
        },
        {
          "indexed": true,
          "internalType": "address",
          "name": "feeDistributor",
          "type": "address"
        },
        {
          "indexed": false,
          "internalType": "uint256",
          "name": "lockerFeesP",
          "type": "uint256"
        }
      ],
      "name": "LockCreated",
      "type": "event"
    },
    {
      "inputs": [],
      "name": "acceptLockManager",
      "outputs": [],
      "stateMutability": "nonpayable",
      "type": "function"
    },
    {
      "inputs": [
        {
          "internalType": "address",
          "name": "pair",
          "type": "address"
        },
        {
          "internalType": "uint256",
          "name": "lockerFeesP",
          "type": "uint256"
        }
      ],
      "name": "createLock",
      "outputs": [
        {
          "internalType": "address",
          "name": "feeDistributor",
          "type": "address"
        }
      ],
      "stateMutability": "nonpayable",
      "type": "function"
    },
    {
      "inputs": [
        {
          "internalType": "address",
          "name": "",
          "type": "address"
        }
      ],
      "name": "feeDistributors",
      "outputs": [
        {
          "internalType": "address",
          "name": "",
          "type": "address"
        }
      ],
      "stateMutability": "view",
      "type": "function"
    },
    {
      "inputs": [],
      "name": "getInitFeeDistributor",
      "outputs": [
        {
          "internalType": "address",
          "name": "",
          "type": "address"
        }
      ],
      "stateMutability": "view",
      "type": "function"
    },
    {
      "inputs": [],
      "name": "getInitTokenLocker",
      "outputs": [
        {
          "internalType": "address",
          "name": "",
          "type": "address"
        },
        {
          "internalType": "uint256",
          "name": "",
          "type": "uint256"
        },
        {
          "internalType": "uint256",
          "name": "",
          "type": "uint256"
        }
      ],
      "stateMutability": "view",
      "type": "function"
    },
    {
      "inputs": [
        {
          "internalType": "address",
          "name": "_router",
          "type": "address"
        }
      ],
      "name": "initRouter",
      "outputs": [],
      "stateMutability": "nonpayable",
      "type": "function"
    },
    {
      "inputs": [],
      "name": "lockManager",
      "outputs": [
        {
          "internalType": "address",
          "name": "",
          "type": "address"
        }
      ],
      "stateMutability": "view",
      "type": "function"
    },
    {
      "inputs": [],
      "name": "maxLockDays",
      "outputs": [
        {
          "internalType": "uint256",
          "name": "",
          "type": "uint256"
        }
      ],
      "stateMutability": "view",
      "type": "function"
    },
    {
      "inputs": [],
      "name": "pendingLockManager",
      "outputs": [
        {
          "internalType": "address",
          "name": "",
          "type": "address"
        }
      ],
      "stateMutability": "view",
      "type": "function"
    },
    {
      "inputs": [],
      "name": "router",
      "outputs": [
        {
          "internalType": "address",
          "name": "",
          "type": "address"
        }
      ],
      "stateMutability": "view",
      "type": "function"
    },
    {
      "inputs": [
        {
          "internalType": "address",
          "name": "_lockManager",
          "type": "address"
        }
      ],
      "name": "setLockManager",
      "outputs": [],
      "stateMutability": "nonpayable",
      "type": "function"
    },
    {
      "inputs": [
        {
          "internalType": "uint256",
          "name": "_maxLockDays",
          "type": "uint256"
        }
      ],
      "name": "setMaxLockDays",
      "outputs": [],
      "stateMutability": "nonpayable",
      "type": "function"
    },
    {
      "inputs": [
        {
          "internalType": "address",
          "name": "",
          "type": "address"
        }
      ],
      "name": "tokenLockers",
      "outputs": [
        {
          "internalType": "address",
          "name": "",
          "type": "address"
        }
      ],
      "stateMutability": "view",
      "type": "function"
    }
  ],
  "transactionHash": "0xbf0cb598e66dbf0a9221b5d29b44a3452c6048e01597143abc04c1dd30ff86a9",
  "args": [
    90
  ],
  "numDeployments": 1,
  "solcInputHash": "397b05948f00496dad26cffe44d47bb4",
  "bytecode": "0x608060405234801561001057600080fd5b5060405161356f38038061356f83398101604081905261002f91610049565b600255600080546001600160a01b03191633179055610062565b60006020828403121561005b57600080fd5b5051919050565b6134fe806100716000396000f3fe608060405234801561001057600080fd5b50600436106100cf5760003560e01c8063acca30a21161008c578063eb6c6fa911610066578063eb6c6fa9146101cd578063f4285c3c146101e4578063f887ea401461020d578063ffcf02d61461022057600080fd5b8063acca30a214610196578063deedfdbd146101a9578063e6706684146101bc57600080fd5b80631166b44b146100d457806327314430146100e957806349b282df1461011957806349e4974a1461012c5780637f5eebe414610155578063a98ae30a14610183575b600080fd5b6100e76100e236600461063b565b610228565b005b6001546100fc906001600160a01b031681565b6040516001600160a01b0390911681526020015b60405180910390f35b6100e761012736600461065d565b610298565b6100fc61013a36600461063b565b6008602052600090815260409020546001600160a01b031681565b600554600654600754604080516001600160a01b039094168452602084019290925290820152606001610110565b6100fc610191366004610676565b61031c565b6000546100fc906001600160a01b031681565b6100e76101b736600461063b565b610535565b6004546001600160a01b03166100fc565b6101d660025481565b604051908152602001610110565b6100fc6101f236600461063b565b6009602052600090815260409020546001600160a01b031681565b6003546100fc906001600160a01b031681565b6100e761059a565b6003546001600160a01b0316156102765760405162461bcd60e51b815260206004820152600d60248201526c1c9bdd5d195c881a5cc81cd95d609a1b60448201526064015b60405180910390fd5b600380546001600160a01b0319166001600160a01b0392909216919091179055565b6000546001600160a01b031633146102db5760405162461bcd60e51b81526020600482015260066024820152654e4f545f4c4d60d01b604482015260640161026d565b600081116103175760405162461bcd60e51b81526020600482015260096024820152685a45524f5f4441595360b81b604482015260640161026d565b600255565b6003546000906001600160a01b031633146103665760405162461bcd60e51b815260206004820152600a6024820152692727aa2fa927aaaa22a960b11b604482015260640161026d565b600082116103a05760405162461bcd60e51b81526020600482015260076024820152664e4f5f4c4f434b60c81b604482015260640161026d565b6040516bffffffffffffffffffffffff19606085901b1660208201526000906034016040516020818303038152906040528051906020012090508362015180426103ea91906106a0565b6103f790620151806106c2565b600254600755600655600580546001600160a01b0319166001600160a01b0392909216919091179055604051819061042e90610605565b8190604051809103906000f590508015801561044e573d6000803e3d6000fd5b50600480546001600160a01b0319166001600160a01b0392909216919091179055604051819061047d90610612565b8190604051809103906000f590508015801561049d573d6000803e3d6000fd5b506001600160a01b03808616600081815260086020908152604080832080548688166001600160a01b031991821681179092556004805460099095529483902080549091169387169390931790925591549151949650939216917facbc640c2f760ed95320d76df493f521e14d874ceeed1d009575a6f2ade0bf02906105269088815260200190565b60405180910390a45092915050565b6000546001600160a01b031633146105785760405162461bcd60e51b81526020600482015260066024820152654e4f545f4c4d60d01b604482015260640161026d565b600180546001600160a01b0319166001600160a01b0392909216919091179055565b6001546001600160a01b031633146105e15760405162461bcd60e51b815260206004820152600a6024820152694e4f545f50454e5f4c4d60b01b604482015260640161026d565b600154600080546001600160a01b0319166001600160a01b03909216919091179055565b6119bf806106ee83390190565b61141c806120ad83390190565b80356001600160a01b038116811461063657600080fd5b919050565b60006020828403121561064d57600080fd5b6106568261061f565b9392505050565b60006020828403121561066f57600080fd5b5035919050565b6000806040838503121561068957600080fd5b6106928361061f565b946020939093013593505050565b6000826106bd57634e487b7160e01b600052601260045260246000fd5b500490565b80820281158282048414176106e757634e487b7160e01b600052601160045260246000fd5b9291505056fe60e06040523480156200001157600080fd5b506000806000336001600160a01b0316637f5eebe46040518163ffffffff1660e01b8152600401606060405180830381865afa15801562000056573d6000803e3d6000fd5b505050506040513d601f19601f820116820180604052508101906200007c9190620000fe565b60c08190526001600160a01b0383166080529194509250905081620000a5620151808262000143565b620000b4906201518062000166565b14620000f35760405162461bcd60e51b815260206004820152600a6024820152692165706f63682064617960b01b604482015260640160405180910390fd5b5060a0525062000192565b6000806000606084860312156200011457600080fd5b83516001600160a01b03811681146200012c57600080fd5b602085015160409095015190969495509392505050565b6000826200016157634e487b7160e01b600052601260045260246000fd5b500490565b80820281158282048414176200018c57634e487b7160e01b600052601160045260246000fd5b92915050565b60805160a05160c0516117be62000201600039600081816101e6015281816103e4015281816106de015281816107460152818161087d01528181610bb40152610efb0152600081816102b3015261056f01526000818161027401528181610a120152610c7001526117be6000f3fe608060405234801561001057600080fd5b50600436106101375760003560e01c806367c130b7116100b8578063bb384f021161007c578063bb384f02146102e5578063e01f2a2a1461030d578063e2ab691d14610358578063e57030841461036b578063f6e5dfcf1461039c578063ffe60d2a146103a457600080fd5b806367c130b71461024f57806372f702f31461026f57806378e97925146102ae57806396c82e57146102d5578063b0b366fe146102dd57600080fd5b80633f329a50116100ff5780633f329a50146101bb578063514ef0ae146101ce5780635791cb20146101e1578063589d7c54146102085780636795616c1461021b57600080fd5b80630103c92b1461013c5780630f1275231461016257806310a7ef1e1461017557806314ba5c09146101a05780633baeefd6146101a8575b600080fd5b61014f61014a3660046114ea565b6103b7565b6040519081526020015b60405180910390f35b61014f6101703660046114ea565b61048d565b610188610183366004611505565b610530565b6040516001600160801b039091168152602001610159565b61014f610564565b61014f6101b63660046114ea565b6105a3565b61014f6101c936600461151e565b61063a565b61014f6101dc36600461151e565b610679565b61014f7f000000000000000000000000000000000000000000000000000000000000000081565b61014f6102163660046114ea565b6106bd565b61023f6102293660046114ea565b6180036020526000908152604090205460ff1681565b6040519015158152602001610159565b61026261025d3660046114ea565b6106cb565b6040516101599190611548565b6102967f000000000000000000000000000000000000000000000000000000000000000081565b6040516001600160a01b039091168152602001610159565b61014f7f000000000000000000000000000000000000000000000000000000000000000081565b61014f610947565b61023f610990565b6102f86102f336600461151e565b610a9b565b60408051928352602083019190915201610159565b61033d61031b3660046114ea565b6180026020526000908152604090208054600182015460029092015490919083565b60408051938452602084019290925290820152606001610159565b61023f6103663660046115b1565b610ae7565b61039a6103793660046115f2565b33600090815261800360205260409020805460ff1916911515919091179055565b005b61023f610d8b565b61023f6103b236600461160f565b610ebc565b6001600160a01b0381166000908152618001602052604081205481906103de906001611651565b905060007f000000000000000000000000000000000000000000000000000000000000000061040b610564565b6104159190611651565b610420906001611651565b90505b80821015610486576001600160a01b0384166000908152618000602052604090208261ffff811061045657610456611664565b015461047290600160801b90046001600160801b031684611651565b92508161047e8161167a565b925050610423565b5050919050565b6001600160a01b038116600090815261800260205260408120805482036104b75750600092915050565b805442906104c89062015180611651565b10156104e957806002015481600101546104e29190611693565b9392505050565b805460009062015180906104fd9042611693565b836001015461050c91906116a6565b61051691906116bd565b90508160020154816105289190611693565b949350505050565b60008161ffff811061054157600080fd5b60029182820401919006601002915054906101000a90046001600160801b031681565b6000620151806105947f000000000000000000000000000000000000000000000000000000000000000042611693565b61059e91906116bd565b905090565b6000806105ae610564565b6001600160a01b0384166000908152618000602090815260408083206180019092528220549293509181906105e4906001611651565b90505b83811161063157828161ffff811061060157610601611664565b015461061d90600160801b90046001600160801b031683611651565b9150806106298161167a565b9150506105e7565b50949350505050565b6001600160a01b0382166000908152618000602052604081208261ffff811061066557610665611664565b01546001600160801b031690505b92915050565b6001600160a01b0382166000908152618000602052604081208261ffff81106106a4576106a4611664565b0154600160801b90046001600160801b03169392505050565b6000610673826101c9610564565b60606000806106d8610564565b905060007f000000000000000000000000000000000000000000000000000000000000000067ffffffffffffffff811115610715576107156116df565b60405190808252806020026020018201604052801561073e578160200160208202803683370190505b50905060005b7f0000000000000000000000000000000000000000000000000000000000000000811015610821576001600160a01b03861660009081526180006020526040902061078f8483611651565b61079a906001611651565b61ffff81106107ab576107ab611664565b01548251600160801b9091046001600160801b0316908390839081106107d3576107d3611664565b60200260200101818152505060008282815181106107f3576107f3611664565b6020026020010151111561080f578361080b8161167a565b9450505b806108198161167a565b915050610744565b508267ffffffffffffffff81111561083b5761083b6116df565b60405190808252806020026020018201604052801561087457816020015b6108616114b0565b8152602001906001900390816108595790505b5093506000805b7f000000000000000000000000000000000000000000000000000000000000000081101561093d5760008382815181106108b7576108b7611664565b6020026020010151111561092b5760405180604001604052808260016108dd9190611651565b81526020018483815181106108f4576108f4611664565b602002602001015181525086838151811061091157610911611664565b602002602001018190525081806109279061167a565b9250505b806109358161167a565b91505061087b565b5050505050919050565b600080610952610564565b61ffff811061096357610963611664565b600291828204019190066010029054906101000a90046001600160801b03166001600160801b0316905090565b336000908152618002602052604081208054829015610a92576109b23361048d565b825490915042906109c69062015180611651565b10156109ef57336000908152618002602052604081208181556001810182905560020155610a05565b8082600201546109ff9190611651565b60028301555b610a396001600160a01b037f0000000000000000000000000000000000000000000000000000000000000000163383611149565b336001600160a01b03167f966d44f34f77683b8d5dd2e14dd23029ed63b6bfb88dcde598e74ef5ca2591608284600201548560010154610a799190611693565b6040805192835260208301919091520160405180910390a25b60019250505090565b600080610aa8848461063a565b60008461ffff8110610abc57610abc611664565b600281049190910154919660019091166010026101000a9091046001600160801b0316945092505050565b6000336001600160a01b03851614610b76576001600160a01b0384166000908152618003602052604090205460ff1615610b765760405162461bcd60e51b815260206004820152602560248201527f43616e6e6f74206c6f636b206f6e20626568616c66206f66207468697320616360448201526418dbdd5b9d60da1b60648201526084015b60405180910390fd5b60008211610bb25760405162461bcd60e51b81526020600482015260096024820152684d696e20312064617960b81b6044820152606401610b6d565b7f0000000000000000000000000000000000000000000000000000000000000000821115610c1a5760405162461bcd60e51b815260206004820152601560248201527445786365656473204d41585f4c4f434b5f4441595360581b6044820152606401610b6d565b60008311610c635760405162461bcd60e51b8152602060048201526016602482015275416d6f756e74206d757374206265206e6f6e7a65726f60501b6044820152606401610b6d565b610c986001600160a01b037f0000000000000000000000000000000000000000000000000000000000000000163330866111ad565b6000610ca2610564565b9050610cb28582868660006111ec565b6000610cbe8483611651565b6001600160a01b03871660009081526180006020526040902090915085908261ffff8110610cee57610cee611664565b018054601090610d0f908490600160801b90046001600160801b03166116f5565b92506101000a8154816001600160801b0302191690836001600160801b03160217905550856001600160a01b03167f7879fe07a34927cf93a00574a8c2e55740a44179eb359ed6850e486df16c52228686604051610d77929190918252602082015260400190565b60405180910390a250600195945050505050565b3360008181526180026020526040812090918290610da8906105a3565b905060008111610dfa5760405162461bcd60e51b815260206004820152601760248201527f4e6f20776974686472617761626c652062616c616e63650000000000000000006044820152606401610b6d565b60008183600201548460010154610e119190611693565b610e1b9190611651565b604080516060810182524281526020808201848152600083850181815233825261800290935293909320915182559151600182015590516002909101559050610e62610564565b336000818152618001602090815260409182902093909355805142815292830184905290917f93c998456e10895ad0f974e304e78268755ba5df1c3bfb3a075df843990b0c15910160405180910390a26001935050505090565b6000808311610ef95760405162461bcd60e51b81526020600482015260096024820152684d696e20312064617960b81b6044820152606401610b6d565b7f0000000000000000000000000000000000000000000000000000000000000000821115610f615760405162461bcd60e51b815260206004820152601560248201527445786365656473204d41585f4c4f434b5f4441595360581b6044820152606401610b6d565b818310610fba5760405162461bcd60e51b815260206004820152602160248201527f6e657744617973206d7573742062652067726561746572207468616e206461796044820152607360f81b6064820152608401610b6d565b600084116110035760405162461bcd60e51b8152602060048201526016602482015275416d6f756e74206d757374206265206e6f6e7a65726f60501b6044820152606401610b6d565b336000908152618000602052604081209061101c610564565b9050600061102a8683611651565b905086838261ffff811061104057611040611664565b018054601090611061908490600160801b90046001600160801b031661171c565b92506101000a8154816001600160801b0302191690836001600160801b0316021790555084826110919190611651565b905086838261ffff81106110a7576110a7611664565b0180546010906110c8908490600160801b90046001600160801b03166116f5565b92506101000a8154816001600160801b0302191690836001600160801b031602179055506110f9338389888a6111ec565b604080518881526020810188905290810186905233907f122a3e1d676401e30ebddc95d2272ae4da59335b50bb40af7452fb0b83b3327e9060600160405180910390a25060019695505050505050565b6040516001600160a01b038381166024830152604482018390526111a891859182169063a9059cbb906064015b604051602081830303815290604052915060e01b6020820180516001600160e01b038381831617835250505050611343565b505050565b6040516001600160a01b0384811660248301528381166044830152606482018390526111e69186918216906323b872dd90608401611176565b50505050565b60006111f88286611651565b905060006112068487611651565b6001600160a01b038816600090815261800060205260409020909150865b828110156113385760006112388285611693565b61124290896116a6565b90508482101561126d576112568286611693565b61126090896116a6565b61126a9082611693565b90505b8060008361ffff811061128257611282611664565b600291828204019190066010028282829054906101000a90046001600160801b03166112ae91906116f5565b92506101000a8154816001600160801b0302191690836001600160801b0316021790555080838361ffff81106112e6576112e6611664565b0180546000906113009084906001600160801b03166116f5565b92506101000a8154816001600160801b0302191690836001600160801b031602179055505080806113309061167a565b915050611224565b505050505050505050565b60006113586001600160a01b038416836113a6565b9050805160001415801561137d57508080602001905181019061137b919061173c565b155b156111a857604051635274afe760e01b81526001600160a01b0384166004820152602401610b6d565b60606104e28383600084600080856001600160a01b031684866040516113cc9190611759565b60006040518083038185875af1925050503d8060008114611409576040519150601f19603f3d011682016040523d82523d6000602084013e61140e565b606091505b509150915061141e868383611428565b9695505050505050565b60608261143d5761143882611484565b6104e2565b815115801561145457506001600160a01b0384163b155b1561147d57604051639996b31560e01b81526001600160a01b0385166004820152602401610b6d565b50806104e2565b8051156114945780518082602001fd5b604051630a12f52160e11b815260040160405180910390fd5b50565b60405180604001604052806002906020820280368337509192915050565b80356001600160a01b03811681146114e557600080fd5b919050565b6000602082840312156114fc57600080fd5b6104e2826114ce565b60006020828403121561151757600080fd5b5035919050565b6000806040838503121561153157600080fd5b61153a836114ce565b946020939093013593505050565b60208082528251828201819052600091906040908185019086840185805b838110156115a357825185835b600281101561159057825182529189019190890190600101611573565b5050509385019391860191600101611566565b509298975050505050505050565b6000806000606084860312156115c657600080fd5b6115cf846114ce565b95602085013595506040909401359392505050565b80151581146114ad57600080fd5b60006020828403121561160457600080fd5b81356104e2816115e4565b60008060006060848603121561162457600080fd5b505081359360208301359350604090920135919050565b634e487b7160e01b600052601160045260246000fd5b808201808211156106735761067361163b565b634e487b7160e01b600052603260045260246000fd5b60006001820161168c5761168c61163b565b5060010190565b818103818111156106735761067361163b565b80820281158282048414176106735761067361163b565b6000826116da57634e487b7160e01b600052601260045260246000fd5b500490565b634e487b7160e01b600052604160045260246000fd5b6001600160801b038181168382160190808211156117155761171561163b565b5092915050565b6001600160801b038281168282160390808211156117155761171561163b565b60006020828403121561174e57600080fd5b81516104e2816115e4565b6000825160005b8181101561177a5760208186018101518583015201611760565b50600092019182525091905056fea26469706673582212208ca31bae7399aa660f644594c0da5c79163f579f311dccdbc9e2258f8a0fcd7b64736f6c6343000814003360e06040523480156200001157600080fd5b506000336001600160a01b031663e67066846040518163ffffffff1660e01b8152600401602060405180830381865afa15801562000053573d6000803e3d6000fd5b505050506040513d601f19601f8201168201806040525081019062000079919062000179565b9050806001600160a01b031660a0816001600160a01b031681525050806001600160a01b03166378e979256040518163ffffffff1660e01b8152600401602060405180830381865afa158015620000d4573d6000803e3d6000fd5b505050506040513d601f19601f82011682018060405250810190620000fa9190620001ab565b60808181525050806001600160a01b03166372f702f36040518163ffffffff1660e01b8152600401602060405180830381865afa15801562000140573d6000803e3d6000fd5b505050506040513d601f19601f8201168201806040525081019062000166919062000179565b6001600160a01b031660c05250620001c5565b6000602082840312156200018c57600080fd5b81516001600160a01b0381168114620001a457600080fd5b9392505050565b600060208284031215620001be57600080fd5b5051919050565b60805160a05160c0516111e16200023b600039600081816101180152818161031601528181610400015261056501526000818161022901528181610a630152610c4a0152600081816101e2015281816102a6015281816102db015281816108e8015281816109970152610bf801526111e16000f3fe608060405234801561001057600080fd5b50600436106100b45760003560e01c80636795616c116100715780636795616c146101ba57806378e97925146101dd5780638e2eba0914610204578063a80bf3e614610224578063e20c5a8a1461024b578063e57030841461027457600080fd5b80630b5d979d146100b957806314ba5c09146100f857806316f0115b1461011357806326741e7d1461015257806326d6d33a1461016a578063402914f514610192575b600080fd5b6100f66100c7366004610f07565b33600090815260026020526040902080546001600160a01b0319166001600160a01b0392909216919091179055565b005b6101006102a2565b6040519081526020015b60405180910390f35b61013a7f000000000000000000000000000000000000000000000000000000000000000081565b6040516001600160a01b03909116815260200161010a565b61015a61030f565b604051901515815260200161010a565b610100610178366004610f24565b600060208181529281526040808220909352908152205481565b6101a56101a0366004610f07565b61055d565b6040805192835260208301919091520161010a565b61015a6101c8366004610f07565b60036020526000908152604090205460ff1681565b6101007f000000000000000000000000000000000000000000000000000000000000000081565b610217610212366004610f50565b61060a565b60405161010a9190610fd8565b61013a7f000000000000000000000000000000000000000000000000000000000000000081565b61013a610259366004610f07565b6002602052600090815260409020546001600160a01b031681565b6100f661028236600461102a565b336000908152600360205260409020805460ff1916911515919091179055565b60007f00000000000000000000000000000000000000000000000000000000000000006000036102d25750600090565b620151806103007f00000000000000000000000000000000000000000000000000000000000000004261105d565b61030a9190611070565b905090565b60008060007f00000000000000000000000000000000000000000000000000000000000000006001600160a01b031663d294f0936040518163ffffffff1660e01b815260040160408051808303816000875af1158015610373573d6000803e3d6000fd5b505050506040513d601f19601f820116820180604052508101906103979190611092565b915091508160001415806103aa57508015155b6103fb5760405162461bcd60e51b815260206004820152601c60248201527f4e6f206665657320746f20636c61696d2066726f6d206120706169720000000060448201526064015b60405180910390fd5b6000807f00000000000000000000000000000000000000000000000000000000000000006001600160a01b0316639d63848a6040518163ffffffff1660e01b81526004016040805180830381865afa15801561045b573d6000803e3d6000fd5b505050506040513d601f19601f8201168201806040525081019061047f91906110b6565b91509150600061048d6102a2565b6001600160a01b0384166000908152602081815260408083208484529091528120805492935087929091906104c39084906110f0565b90915550506001600160a01b038216600090815260208181526040808320848452909152812080548692906104f99084906110f0565b9091555050604080513381526020810187905290810185905281906001600160a01b0380851691908616907f987e721f181ec748fde262adafbc37e9eefb81dbd0dae2e06ba4e4902edc223a9060600160405180910390a460019550505050505090565b6000806000807f00000000000000000000000000000000000000000000000000000000000000006001600160a01b0316639d63848a6040518163ffffffff1660e01b81526004016040805180830381865afa1580156105c0573d6000803e3d6000fd5b505050506040513d601f19601f820116820180604052508101906105e491906110b6565b915091506105f2858361089f565b5093506105ff858261089f565b509395939450505050565b6060336001600160a01b03851614610694576001600160a01b03841660009081526003602052604090205460ff16156106945760405162461bcd60e51b815260206004820152602660248201527f43616e6e6f7420636c61696d206f6e20626568616c66206f662074686973206160448201526518d8dbdd5b9d60d21b60648201526084016103f2565b6001600160a01b0380851660009081526002602052604090205416806106b75750835b8267ffffffffffffffff8111156106d0576106d0611103565b6040519080825280602002602001820160405280156106f9578160200160208202803683370190505b50915061072060405180606001604052806000815260200160008152602001600081525090565b60005b8481101561089457600086868381811061073f5761073f611119565b90506020020160208101906107549190610f07565b9050610760888261089f565b86848151811061077257610772611119565b6020908102919091018101929092526001600160a01b03808b1660009081526001808552604080832093871683529285529082902083518155938301519084015581015160029092019190915585519093506107fd9085908790859081106107dc576107dc611119565b6020026020010151836001600160a01b0316610b689092919063ffffffff16565b806001600160a01b0316846001600160a01b0316896001600160a01b03167ff6d260dfbf660d568d47bf9cdf70ab26cb73e8244e6bfe486d9ded296368c3053389878151811061084f5761084f611119565b60200260200101516040516108799291906001600160a01b03929092168252602082015260400190565b60405180910390a4508061088c8161112f565b915050610723565b5050505b9392505050565b60006108c560405180606001604052806000815260200160008152602001600081525090565b60006108cf6102a2565b90508060000361092257600060405180606001604052807f000000000000000000000000000000000000000000000000000000000000000081526020016000815260200160008152509250925050610b61565b61092d60018261105d565b6001600160a01b038087166000908152600160208181526040808420948a16845293815283832084516060810186528154808252938201549281019290925260020154938101939093529293509091810361098a575060006109c9565b815162015180906109bc907f00000000000000000000000000000000000000000000000000000000000000009061105d565b6109c69190611070565b90505b6000818403610a035760408301516109e2898987610bbf565b93508084604001516109f4919061105d565b9650929450610b619350505050565b825115610a2e5782604001518360200151610a1e919061105d565b9050610a2b6001836110f0565b91505b815b84811015610b3a57604051635d9c278160e11b81526001600160a01b038a811660048301526024820183905260009182917f0000000000000000000000000000000000000000000000000000000000000000169063bb384f02906044016040805180830381865afa158015610aa9573d6000803e3d6000fd5b505050506040513d601f19601f82011682018060405250810190610acd9190611092565b9150915081600003610ae0575050610b28565b6001600160a01b038a166000908152602081815260408083208684529091529020548190610b0f908490611148565b610b199190611070565b610b2390856110f0565b935050505b80610b328161112f565b915050610a30565b50610b46888886610bbf565b9250826040015181610b5891906110f0565b95509193505050505b9250929050565b604080516001600160a01b038416602482015260448082018490528251808303909101815260649091019091526020810180516001600160e01b031663a9059cbb60e01b179052610bba908490610d53565b505050565b610be360405180606001604052806000815260200160008152602001600081525090565b6000610bf28362015180611148565b610c1c907f00000000000000000000000000000000000000000000000000000000000000006110f0565b604051635d9c278160e11b81526001600160a01b0387811660048301526024820186905291925060009182917f00000000000000000000000000000000000000000000000000000000000000009091169063bb384f02906044016040805180830381865afa158015610c92573d6000803e3d6000fd5b505050506040513d601f19601f82011682018060405250810190610cb69190611092565b90925090506000808315610d2f576001600160a01b0388166000908152602081815260408083208a84529091529020548390610cf3908690611148565b610cfd9190611070565b91506201518085610d0e824261105d565b610d18919061105d565b610d229084611148565b610d2c9190611070565b90505b60408051606081018252958652602086019290925290840152509095945050505050565b6000610d686001600160a01b03841683610db6565b90508051600014158015610d8d575080806020019051810190610d8b919061115f565b155b15610bba57604051635274afe760e01b81526001600160a01b03841660048201526024016103f2565b6060610dc483836000610dcd565b90505b92915050565b606081471015610df25760405163cd78605960e01b81523060048201526024016103f2565b600080856001600160a01b03168486604051610e0e919061117c565b60006040518083038185875af1925050503d8060008114610e4b576040519150601f19603f3d011682016040523d82523d6000602084013e610e50565b606091505b5091509150610e60868383610e6a565b9695505050505050565b606082610e7f57610e7a82610ec6565b610898565b8151158015610e9657506001600160a01b0384163b155b15610ebf57604051639996b31560e01b81526001600160a01b03851660048201526024016103f2565b5080610898565b805115610ed65780518082602001fd5b604051630a12f52160e11b815260040160405180910390fd5b50565b6001600160a01b0381168114610eef57600080fd5b600060208284031215610f1957600080fd5b813561089881610ef2565b60008060408385031215610f3757600080fd5b8235610f4281610ef2565b946020939093013593505050565b600080600060408486031215610f6557600080fd5b8335610f7081610ef2565b9250602084013567ffffffffffffffff80821115610f8d57600080fd5b818601915086601f830112610fa157600080fd5b813581811115610fb057600080fd5b8760208260051b8501011115610fc557600080fd5b6020830194508093505050509250925092565b6020808252825182820181905260009190848201906040850190845b8181101561101057835183529284019291840191600101610ff4565b50909695505050505050565b8015158114610eef57600080fd5b60006020828403121561103c57600080fd5b81356108988161101c565b634e487b7160e01b600052601160045260246000fd5b81810381811115610dc757610dc7611047565b60008261108d57634e487b7160e01b600052601260045260246000fd5b500490565b600080604083850312156110a557600080fd5b505080516020909101519092909150565b600080604083850312156110c957600080fd5b82516110d481610ef2565b60208401519092506110e581610ef2565b809150509250929050565b80820180821115610dc757610dc7611047565b634e487b7160e01b600052604160045260246000fd5b634e487b7160e01b600052603260045260246000fd5b60006001820161114157611141611047565b5060010190565b8082028115828204841417610dc757610dc7611047565b60006020828403121561117157600080fd5b81516108988161101c565b6000825160005b8181101561119d5760208186018101518583015201611183565b50600092019182525091905056fea2646970667358221220c6da7a2aef4de3821a9356c4135db37225e7c6dc8987f7ce835513e4cbaa327d64736f6c63430008140033a264697066735822122064cb0b12ea68203937b72fb3f31f7ac1b79835dd78b64b21159d2045dc1818ba64736f6c63430008140033",
  "devdoc": {
    "kind": "dev",
    "methods": {},
    "version": 1
  },
  "userdoc": {
    "kind": "user",
    "methods": {},
    "version": 1
  },
  "storageLayout": {
    "storage": [
      {
        "astId": 5853,
        "contract": "contracts/factories/LockFactory.sol:LockFactory",
        "label": "lockManager",
        "offset": 0,
        "slot": "0",
        "type": "t_address"
      },
      {
        "astId": 5855,
        "contract": "contracts/factories/LockFactory.sol:LockFactory",
        "label": "pendingLockManager",
        "offset": 0,
        "slot": "1",
        "type": "t_address"
      },
      {
        "astId": 5857,
        "contract": "contracts/factories/LockFactory.sol:LockFactory",
        "label": "maxLockDays",
        "offset": 0,
        "slot": "2",
        "type": "t_uint256"
      },
      {
        "astId": 5859,
        "contract": "contracts/factories/LockFactory.sol:LockFactory",
        "label": "router",
        "offset": 0,
        "slot": "3",
        "type": "t_address"
      },
      {
        "astId": 5861,
        "contract": "contracts/factories/LockFactory.sol:LockFactory",
        "label": "_tempL",
        "offset": 0,
        "slot": "4",
        "type": "t_address"
      },
      {
        "astId": 5863,
        "contract": "contracts/factories/LockFactory.sol:LockFactory",
        "label": "_tempP",
        "offset": 0,
        "slot": "5",
        "type": "t_address"
      },
      {
        "astId": 5865,
        "contract": "contracts/factories/LockFactory.sol:LockFactory",
        "label": "_tempS",
        "offset": 0,
        "slot": "6",
        "type": "t_uint256"
      },
      {
        "astId": 5867,
        "contract": "contracts/factories/LockFactory.sol:LockFactory",
        "label": "_tempM",
        "offset": 0,
        "slot": "7",
        "type": "t_uint256"
      },
      {
        "astId": 5871,
        "contract": "contracts/factories/LockFactory.sol:LockFactory",
        "label": "feeDistributors",
        "offset": 0,
        "slot": "8",
        "type": "t_mapping(t_address,t_address)"
      },
      {
        "astId": 5875,
        "contract": "contracts/factories/LockFactory.sol:LockFactory",
        "label": "tokenLockers",
        "offset": 0,
        "slot": "9",
        "type": "t_mapping(t_address,t_address)"
      }
    ],
    "types": {
      "t_address": {
        "encoding": "inplace",
        "label": "address",
        "numberOfBytes": "20"
      },
      "t_mapping(t_address,t_address)": {
        "encoding": "mapping",
        "key": "t_address",
        "label": "mapping(address => address)",
        "numberOfBytes": "32",
        "value": "t_address"
      },
      "t_uint256": {
        "encoding": "inplace",
        "label": "uint256",
        "numberOfBytes": "32"
      }
    }
  }
}