{
  "address": "0x2D9A3a2bd6400eE28d770c7254cA840c82faf23f",
  "abi": [
    {
      "inputs": [],
      "stateMutability": "nonpayable",
      "type": "constructor"
    },
    {
      "anonymous": false,
      "inputs": [
        {
          "indexed": true,
          "internalType": "address",
          "name": "token0",
          "type": "address"
        },
        {
          "indexed": true,
          "internalType": "address",
          "name": "token1",
          "type": "address"
        },
        {
          "indexed": false,
          "internalType": "bool",
          "name": "stable",
          "type": "bool"
        },
        {
          "indexed": false,
          "internalType": "address",
          "name": "pair",
          "type": "address"
        },
        {
          "indexed": false,
          "internalType": "uint256",
          "name": "",
          "type": "uint256"
        }
      ],
      "name": "PairCreated",
      "type": "event"
    },
    {
      "inputs": [],
      "name": "MAX_FEE",
      "outputs": [
        {
          "internalType": "uint256",
          "name": "",
          "type": "uint256"
        }
      ],
      "stateMutability": "view",
      "type": "function"
    },
    {
      "inputs": [],
      "name": "acceptFeeManager",
      "outputs": [],
      "stateMutability": "nonpayable",
      "type": "function"
    },
    {
      "inputs": [],
      "name": "acceptPauser",
      "outputs": [],
      "stateMutability": "nonpayable",
      "type": "function"
    },
    {
      "inputs": [
        {
          "internalType": "uint256",
          "name": "",
          "type": "uint256"
        }
      ],
      "name": "allPairs",
      "outputs": [
        {
          "internalType": "address",
          "name": "",
          "type": "address"
        }
      ],
      "stateMutability": "view",
      "type": "function"
    },
    {
      "inputs": [],
      "name": "allPairsLength",
      "outputs": [
        {
          "internalType": "uint256",
          "name": "",
          "type": "uint256"
        }
      ],
      "stateMutability": "view",
      "type": "function"
    },
    {
      "inputs": [
        {
          "internalType": "address",
          "name": "tokenA",
          "type": "address"
        },
        {
          "internalType": "address",
          "name": "tokenB",
          "type": "address"
        },
        {
          "internalType": "bool",
          "name": "stable",
          "type": "bool"
        },
        {
          "internalType": "uint256",
          "name": "lockerFeesP",
          "type": "uint256"
        },
        {
          "internalType": "address",
          "name": "feeDistributor",
          "type": "address"
        }
      ],
      "name": "createPair",
      "outputs": [
        {
          "internalType": "address",
          "name": "pair",
          "type": "address"
        }
      ],
      "stateMutability": "nonpayable",
      "type": "function"
    },
    {
      "inputs": [],
      "name": "feeManager",
      "outputs": [
        {
          "internalType": "address",
          "name": "",
          "type": "address"
        }
      ],
      "stateMutability": "view",
      "type": "function"
    },
    {
      "inputs": [
        {
          "internalType": "bool",
          "name": "_stable",
          "type": "bool"
        }
      ],
      "name": "getFee",
      "outputs": [
        {
          "internalType": "uint256",
          "name": "",
          "type": "uint256"
        }
      ],
      "stateMutability": "view",
      "type": "function"
    },
    {
      "inputs": [],
      "name": "getInitializable",
      "outputs": [
        {
          "internalType": "address",
          "name": "",
          "type": "address"
        },
        {
          "internalType": "address",
          "name": "",
          "type": "address"
        },
        {
          "internalType": "bool",
          "name": "",
          "type": "bool"
        },
        {
          "internalType": "uint256",
          "name": "",
          "type": "uint256"
        },
        {
          "internalType": "address",
          "name": "",
          "type": "address"
        }
      ],
      "stateMutability": "view",
      "type": "function"
    },
    {
      "inputs": [
        {
          "internalType": "address",
          "name": "",
          "type": "address"
        },
        {
          "internalType": "address",
          "name": "",
          "type": "address"
        },
        {
          "internalType": "bool",
          "name": "",
          "type": "bool"
        }
      ],
      "name": "getPair",
      "outputs": [
        {
          "internalType": "address",
          "name": "",
          "type": "address"
        }
      ],
      "stateMutability": "view",
      "type": "function"
    },
    {
      "inputs": [
        {
          "internalType": "uint256",
          "name": "rangeA",
          "type": "uint256"
        },
        {
          "internalType": "uint256",
          "name": "rangeB",
          "type": "uint256"
        }
      ],
      "name": "getPairs",
      "outputs": [
        {
          "internalType": "address[]",
          "name": "pairs",
          "type": "address[]"
        }
      ],
      "stateMutability": "view",
      "type": "function"
    },
    {
      "inputs": [
        {
          "internalType": "address",
          "name": "_router",
          "type": "address"
        }
      ],
      "name": "initRouter",
      "outputs": [],
      "stateMutability": "nonpayable",
      "type": "function"
    },
    {
      "inputs": [
        {
          "internalType": "address",
          "name": "",
          "type": "address"
        }
      ],
      "name": "isPair",
      "outputs": [
        {
          "internalType": "bool",
          "name": "",
          "type": "bool"
        }
      ],
      "stateMutability": "view",
      "type": "function"
    },
    {
      "inputs": [],
      "name": "isPaused",
      "outputs": [
        {
          "internalType": "bool",
          "name": "",
          "type": "bool"
        }
      ],
      "stateMutability": "view",
      "type": "function"
    },
    {
      "inputs": [],
      "name": "pairCodeHash",
      "outputs": [
        {
          "internalType": "bytes32",
          "name": "",
          "type": "bytes32"
        }
      ],
      "stateMutability": "pure",
      "type": "function"
    },
    {
      "inputs": [],
      "name": "pauser",
      "outputs": [
        {
          "internalType": "address",
          "name": "",
          "type": "address"
        }
      ],
      "stateMutability": "view",
      "type": "function"
    },
    {
      "inputs": [],
      "name": "pendingFeeManager",
      "outputs": [
        {
          "internalType": "address",
          "name": "",
          "type": "address"
        }
      ],
      "stateMutability": "view",
      "type": "function"
    },
    {
      "inputs": [],
      "name": "pendingPauser",
      "outputs": [
        {
          "internalType": "address",
          "name": "",
          "type": "address"
        }
      ],
      "stateMutability": "view",
      "type": "function"
    },
    {
      "inputs": [],
      "name": "router",
      "outputs": [
        {
          "internalType": "address",
          "name": "",
          "type": "address"
        }
      ],
      "stateMutability": "view",
      "type": "function"
    },
    {
      "inputs": [
        {
          "internalType": "bool",
          "name": "_stable",
          "type": "bool"
        },
        {
          "internalType": "uint256",
          "name": "_fee",
          "type": "uint256"
        }
      ],
      "name": "setFee",
      "outputs": [],
      "stateMutability": "nonpayable",
      "type": "function"
    },
    {
      "inputs": [
        {
          "internalType": "address",
          "name": "_feeManager",
          "type": "address"
        }
      ],
      "name": "setFeeManager",
      "outputs": [],
      "stateMutability": "nonpayable",
      "type": "function"
    },
    {
      "inputs": [
        {
          "internalType": "bool",
          "name": "_state",
          "type": "bool"
        }
      ],
      "name": "setPause",
      "outputs": [],
      "stateMutability": "nonpayable",
      "type": "function"
    },
    {
      "inputs": [
        {
          "internalType": "address",
          "name": "_pauser",
          "type": "address"
        }
      ],
      "name": "setPauser",
      "outputs": [],
      "stateMutability": "nonpayable",
      "type": "function"
    },
    {
      "inputs": [],
      "name": "stableFee",
      "outputs": [
        {
          "internalType": "uint256",
          "name": "",
          "type": "uint256"
        }
      ],
      "stateMutability": "view",
      "type": "function"
    },
    {
      "inputs": [],
      "name": "volatileFee",
      "outputs": [
        {
          "internalType": "uint256",
          "name": "",
          "type": "uint256"
        }
      ],
      "stateMutability": "view",
      "type": "function"
    }
  ],
  "transactionHash": "0x2da3fda3105291ab1396a0a0666154c9874afaa6d066c55ec5abac1d1d4098d3",
  "args": [],
  "numDeployments": 1,
  "solcInputHash": "b59c519d869a54e9fa3cf6527ed6281f",
  "bytecode": "0x608060405234801561001057600080fd5b50600080546001600160a81b03191633610100810260ff1916919091178255600480546001600160a01b03191690911790556002808055600355615ab390819061005a90396000f3fe60806040523480156200001157600080fd5b5060043610620001925760003560e01c80639a7165e411620000f0578063d0fb020311620000a3578063eb13c4cf116200007a578063eb13c4cf146200038e578063f2364e9114620003de578063f887ea401462000404578063f94c53c7146200041857600080fd5b8063d0fb0203146200033d578063e1f76b441462000351578063e5e31b13146200036857600080fd5b80639a7165e414620002c75780639aab924814620002db5780639fd0506d14620002e5578063b187bd2614620002fe578063bc063e1a146200031d578063bedb86fb146200032657600080fd5b8063472d35b91162000149578063472d35b914620002355780635084ed03146200024c578063512b45ea1462000256578063574f2ba3146200026d5780636801cc3014620002765780638a4fa0d214620002b357600080fd5b80631166b44b1462000197578063167a6f9014620001b05780631e3dd18b14620001ba5780632d88af4a14620001ee57806333c2c0b3146200020557806340bbd775146200021c575b600080fd5b620001ae620001a836600462000c32565b62000422565b005b620001ae62000493565b620001d1620001cb36600462000c57565b620004d6565b6040516001600160a01b0390911681526020015b60405180910390f35b620001ae620001ff36600462000c32565b62000501565b620001d16200021636600462000c82565b62000540565b6200022660025481565b604051908152602001620001e5565b620001ae6200024636600462000c32565b6200087e565b6200022660035481565b620002266200026736600462000ce9565b620008ee565b60085462000226565b620001d16200028736600462000d07565b60076020908152600093845260408085208252928452828420905282529020546001600160a01b031681565b600554620001d1906001600160a01b031681565b600154620001d1906001600160a01b031681565b6200022662000909565b600054620001d19061010090046001600160a01b031681565b6000546200030c9060ff1681565b6040519015158152602001620001e5565b62000226600581565b620001ae6200033736600462000ce9565b6200093d565b600454620001d1906001600160a01b031681565b620001ae6200036236600462000d51565b6200096d565b6200030c6200037936600462000c32565b60096020526000908152604090205460ff1681565b600a54600b54600c54600d54604080516001600160a01b0395861681528585166020820152600160a01b90940460ff16151590840152606083019190915291909116608082015260a001620001e5565b620003f5620003ef36600462000d7e565b62000a58565b604051620001e5919062000da1565b600654620001d1906001600160a01b031681565b620001ae62000b87565b6006546001600160a01b031615620004715760405162461bcd60e51b815260206004820152600d60248201526c1c9bdd5d195c881a5cc81cd95d609a1b60448201526064015b60405180910390fd5b600680546001600160a01b0319166001600160a01b0392909216919091179055565b6001546001600160a01b03163314620004ab57600080fd5b600154600080546001600160a01b0390921661010002610100600160a81b0319909216919091179055565b60088181548110620004e757600080fd5b6000918252602090912001546001600160a01b0316905081565b60005461010090046001600160a01b031633146200051e57600080fd5b600180546001600160a01b0319166001600160a01b0392909216919091179055565b6006546000906001600160a01b03163314620005845760405162461bcd60e51b8152602060048201526002602482015261272960f11b604482015260640162000468565b846001600160a01b0316866001600160a01b031603620005cc5760405162461bcd60e51b8152602060048201526002602482015261494160f01b604482015260640162000468565b600080866001600160a01b0316886001600160a01b031610620005f1578688620005f4565b87875b90925090506001600160a01b038216620006365760405162461bcd60e51b81526020600482015260026024820152615a4160f01b604482015260640162000468565b6001600160a01b038281166000908152600760209081526040808320858516845282528083208a1515845290915290205416156200069c5760405162461bcd60e51b8152602060048201526002602482015261504560f01b604482015260640162000468565b6040516bffffffffffffffffffffffff19606084811b8216602084015283901b16603482015286151560f81b604882015260009060490160408051808303601f19018152908290528051602090910120600d80546001600160a01b03199081166001600160a01b038a811691909117909255600c8a9055600b80546001600160a81b031916600160a01b8d151502831617878416179055600a805490911691871691909117905591508190620007529062000c07565b8190604051809103906000f590508015801562000773573d6000803e3d6000fd5b506001600160a01b0384811660008181526007602081815260408084208987168086529083528185208f15158087529084528286208054988a166001600160a01b0319998a16811790915582875294845282862087875284528286208187528452828620805489168617905560088054600181810183557ff3f7a9fe364faab93b216da50a3214154f22a0a2b415b23a84c8169e8b636ee39091018054909a1687179099558587526009855295839020805460ff1916909817909755935481519687529186019290925290840152929650907fc4805696c66d7cf352fc1d6bb633ad5ee82f6cb577c453024b6e0eb8306c6fc99060600160405180910390a350505095945050505050565b6004546001600160a01b03163314620008cc5760405162461bcd60e51b815260206004820152600f60248201526e3737ba103332b29036b0b730b3b2b960891b604482015260640162000468565b600580546001600160a01b0319166001600160a01b0392909216919091179055565b600081620008ff5760035462000903565b6002545b92915050565b6000604051806020016200091d9062000c07565b6020820181038252601f19601f8201166040525080519060200120905090565b60005461010090046001600160a01b031633146200095a57600080fd5b6000805460ff1916911515919091179055565b6004546001600160a01b03163314620009bb5760405162461bcd60e51b815260206004820152600f60248201526e3737ba103332b29036b0b730b3b2b960891b604482015260640162000468565b6005811115620009fd5760405162461bcd60e51b815260206004820152600c60248201526b0cccaca40e8dede40d0d2ced60a31b604482015260640162000468565b8060000362000a455760405162461bcd60e51b8152602060048201526013602482015272666565206d757374206265206e6f6e7a65726f60681b604482015260640162000468565b811562000a525760025550565b60035550565b600854606090821180159062000a6d57508183105b62000aab5760405162461bcd60e51b815260206004820152600d60248201526c494e56414c49445f52414e474560981b604482015260640162000468565b62000ab7838362000e06565b67ffffffffffffffff81111562000ad25762000ad262000e1c565b60405190808252806020026020018201604052801562000afc578160200160208202803683370190505b509050825b8281101562000b80576008818154811062000b205762000b2062000e32565b6000918252602090912001546001600160a01b03168262000b42868462000e06565b8151811062000b555762000b5562000e32565b6001600160a01b039092166020928302919091019091015262000b788162000e48565b905062000b01565b5092915050565b6005546001600160a01b0316331462000be35760405162461bcd60e51b815260206004820152601760248201527f6e6f742070656e64696e6720666565206d616e61676572000000000000000000604482015260640162000468565b600554600480546001600160a01b0319166001600160a01b03909216919091179055565b614c198062000e6583390190565b80356001600160a01b038116811462000c2d57600080fd5b919050565b60006020828403121562000c4557600080fd5b62000c508262000c15565b9392505050565b60006020828403121562000c6a57600080fd5b5035919050565b8035801515811462000c2d57600080fd5b600080600080600060a0868803121562000c9b57600080fd5b62000ca68662000c15565b945062000cb66020870162000c15565b935062000cc66040870162000c71565b92506060860135915062000cdd6080870162000c15565b90509295509295909350565b60006020828403121562000cfc57600080fd5b62000c508262000c71565b60008060006060848603121562000d1d57600080fd5b62000d288462000c15565b925062000d386020850162000c15565b915062000d486040850162000c71565b90509250925092565b6000806040838503121562000d6557600080fd5b62000d708362000c71565b946020939093013593505050565b6000806040838503121562000d9257600080fd5b50508035926020909101359150565b6020808252825182820181905260009190848201906040850190845b8181101562000de45783516001600160a01b03168352928401929184019160010162000dbd565b50909695505050505050565b634e487b7160e01b600052601160045260246000fd5b8181038181111562000903576200090362000df0565b634e487b7160e01b600052604160045260246000fd5b634e487b7160e01b600052603260045260246000fd5b60006001820162000e5d5762000e5d62000df0565b506001019056fe6101a060405260006002556000600d556000600e5560016013553480156200002657600080fd5b50336001600160a01b0316610100816001600160a01b0316815250506000806000806000336001600160a01b031663eb13c4cf6040518163ffffffff1660e01b815260040160a060405180830381865afa15801562000089573d6000803e3d6000fd5b505050506040513d601f19601f82011682018060405250810190620000af919062000795565b945094509450945094508160001480620000de575061271082108015620000de57506001600160a01b03811615155b6200011f5760405162461bcd60e51b815260206004820152600d60248201526c135254d4d7d1915157d11254d5609a1b604482015260640160405180910390fd5b6001600160a01b038082166101605261018083905283151560805280851660c052851660a0526040518590859062000157906200076a565b6001600160a01b03928316815291166020820152604001604051809103906000f0801580156200018b573d6000803e3d6000fd5b506001600160a01b031660e0528215620003b757846001600160a01b03166395d89b416040518163ffffffff1660e01b81526004016000604051808303816000875af1158015620001e0573d6000803e3d6000fd5b505050506040513d6000823e601f3d908101601f191682016040526200020a91908101906200083f565b846001600160a01b03166395d89b416040518163ffffffff1660e01b81526004016000604051808303816000875af11580156200024b573d6000803e3d6000fd5b505050506040513d6000823e601f3d908101601f191682016040526200027591908101906200083f565b60405160200162000288929190620008f7565b60405160208183030381529060405260009081620002a79190620009e1565b50846001600160a01b03166395d89b416040518163ffffffff1660e01b81526004016000604051808303816000875af1158015620002e9573d6000803e3d6000fd5b505050506040513d6000823e601f3d908101601f191682016040526200031391908101906200083f565b846001600160a01b03166395d89b416040518163ffffffff1660e01b81526004016000604051808303816000875af115801562000354573d6000803e3d6000fd5b505050506040513d6000823e601f3d908101601f191682016040526200037e91908101906200083f565b6040516020016200039192919062000aad565b60405160208183030381529060405260019081620003b09190620009e1565b50620005ca565b846001600160a01b03166395d89b416040518163ffffffff1660e01b81526004016000604051808303816000875af1158015620003f8573d6000803e3d6000fd5b505050506040513d6000823e601f3d908101601f191682016040526200042291908101906200083f565b846001600160a01b03166395d89b416040518163ffffffff1660e01b81526004016000604051808303816000875af115801562000463573d6000803e3d6000fd5b505050506040513d6000823e601f3d908101601f191682016040526200048d91908101906200083f565b604051602001620004a092919062000afe565b60405160208183030381529060405260009081620004bf9190620009e1565b50846001600160a01b03166395d89b416040518163ffffffff1660e01b81526004016000604051808303816000875af115801562000501573d6000803e3d6000fd5b505050506040513d6000823e601f3d908101601f191682016040526200052b91908101906200083f565b846001600160a01b03166395d89b416040518163ffffffff1660e01b81526004016000604051808303816000875af11580156200056c573d6000803e3d6000fd5b505050506040513d6000823e601f3d908101601f191682016040526200059691908101906200083f565b604051602001620005a992919062000b5b565b60405160208183030381529060405260019081620005c89190620009e1565b505b846001600160a01b031663313ce5676040518163ffffffff1660e01b81526004016020604051808303816000875af11580156200060b573d6000803e3d6000fd5b505050506040513d601f19601f8201168201806040525081019062000631919062000b7d565b6200063e90600a62000cbe565b6101208181525050836001600160a01b031663313ce5676040518163ffffffff1660e01b81526004016020604051808303816000875af115801562000687573d6000803e3d6000fd5b505050506040513d601f19601f82011682018060405250810190620006ad919062000b7d565b620006ba90600a62000cbe565b6101405250506040805160608101825242815260006020820181815292820181815260078054600181018255925291517fa66cc928b5edb82af9bd49922954155ab7b0942694bea4ce44661d9a8736c68860039092029182015591517fa66cc928b5edb82af9bd49922954155ab7b0942694bea4ce44661d9a8736c689830155517fa66cc928b5edb82af9bd49922954155ab7b0942694bea4ce44661d9a8736c68a909101555062000ccf915050565b61036480620048b583390190565b80516001600160a01b03811681146200079057600080fd5b919050565b600080600080600060a08688031215620007ae57600080fd5b620007b98662000778565b9450620007c96020870162000778565b935060408601518015158114620007df57600080fd5b60608701519093509150620007f76080870162000778565b90509295509295909350565b634e487b7160e01b600052604160045260246000fd5b60005b83811015620008365781810151838201526020016200081c565b50506000910152565b6000602082840312156200085257600080fd5b81516001600160401b03808211156200086a57600080fd5b818401915084601f8301126200087f57600080fd5b81518181111562000894576200089462000803565b604051601f8201601f19908116603f01168101908382118183101715620008bf57620008bf62000803565b81604052828152876020848701011115620008d957600080fd5b620008ec83602083016020880162000819565b979650505050505050565b6e029ba30b13632ab189020a6a690169608d1b8152600083516200092381600f85016020880162000819565b602f60f81b600f9184019182015283516200094681601084016020880162000819565b01601001949350505050565b600181811c908216806200096757607f821691505b6020821081036200098857634e487b7160e01b600052602260045260246000fd5b50919050565b601f821115620009dc57600081815260208120601f850160051c81016020861015620009b75750805b601f850160051c820191505b81811015620009d857828155600101620009c3565b5050505b505050565b81516001600160401b03811115620009fd57620009fd62000803565b62000a158162000a0e845462000952565b846200098e565b602080601f83116001811462000a4d576000841562000a345750858301515b600019600386901b1c1916600185901b178555620009d8565b600085815260208120601f198616915b8281101562000a7e5788860151825594840194600190910190840162000a5d565b508582101562000a9d5787850151600019600388901b60f8161c191681555b5050505050600190811b01905550565b6473414d4d2d60d81b81526000835162000acf81600585016020880162000819565b602f60f81b600591840191820152835162000af281600684016020880162000819565b01600601949350505050565b7002b37b630ba34b632ab189020a6a690169607d1b81526000835162000b2c81601185016020880162000819565b602f60f81b601191840191820152835162000b4f81601284016020880162000819565b01601201949350505050565b6476414d4d2d60d81b81526000835162000acf81600585016020880162000819565b60006020828403121562000b9057600080fd5b815160ff8116811462000ba257600080fd5b9392505050565b634e487b7160e01b600052601160045260246000fd5b600181815b8085111562000c0057816000190482111562000be45762000be462000ba9565b8085161562000bf257918102915b93841c939080029062000bc4565b509250929050565b60008262000c195750600162000cb8565b8162000c285750600062000cb8565b816001811462000c41576002811462000c4c5762000c6c565b600191505062000cb8565b60ff84111562000c605762000c6062000ba9565b50506001821b62000cb8565b5060208310610133831016604e8410600b841016171562000c91575081810a62000cb8565b62000c9d838362000bbf565b806000190482111562000cb45762000cb462000ba9565b0290505b92915050565b600062000ba260ff84168362000c08565b60805160a05160c05160e0516101005161012051610140516101605161018051613a0962000eac600039600081816107d901528181612ed601528181612f3e01528181612f6a01528181613085015281816130ed015261311901526000818161030f01528181611c6301528181611c8b01528181612f9f015261314e01526000818161046e015281816126690152818161295301528181612a150152612b2001526000818161044b015281816126280152818161291401528181612a570152612afa01526000818161081c01528181610c6b01528181610d3c015261219801526000818161062f01528181611da00152818161248f015261255c0152600081816104f801528181610684015281816107510152818161095701528181610bff015281816115730152818161175e01528181611b85015281816122f5015261253b01526000818161034e015281816104d00152818161065f0152818161093601528181610bde015281816114dd0152818161173c01528181611b630152818161226d0152818161246e01528181612995015281816129dc01528181612ac10152612b640152600081816103d4015281816104a001528181610c3301528181610d04015281816121670152818161260001526128e00152613a096000f3fe608060405234801561001057600080fd5b506004361061028a5760003560e01c80637ecebe001161015c578063bda39cad116100ce578063d505accf11610087578063d505accf1461077b578063dd62ed3e1461078e578063ebeb31db146107b9578063f140a35a146107c1578063fb6d6659146107d4578063fff6cae9146107fb57600080fd5b8063bda39cad14610728578063bf944dbc14610731578063c245febc1461073a578063c5700a0214610743578063d21220a71461074c578063d294f0931461077357600080fd5b80639d63848a116101205780639d63848a146106515780639e8cc04b146106af5780639f767c88146106c2578063a1ac4d13146106e2578063a9059cbb14610702578063bc25cf771461071557600080fd5b80637ecebe00146105b057806389afcb44146105d05780638a7b8cf2146105f857806395d89b41146106225780639af1d35a1461062a57600080fd5b806323b872dd116102005780634d5a9f8a116101b95780634d5a9f8a1461052e578063517b3f821461054e5780635881c475146105615780635a76f25e146105745780636a6278421461057d57806370a082311461059057600080fd5b806323b872dd146103f6578063252c09d714610409578063313ce5671461041c57806332c0defd14610436578063392f37e91461043f578063443cb4bc1461052557600080fd5b80630dfe1681116102525780630dfe16811461034957806313345fe11461037057806318160ddd146103905780631df8c717146103a7578063205aabf1146103af57806322be3de1146103cf57600080fd5b8063022c0d9f1461028f57806306fdde03146102a45780630902f1ac146102c2578063095ea7b3146102e75780630d43e8ad1461030a575b600080fd5b6102a261029d36600461346d565b610803565b005b6102ac610f50565b6040516102b99190613527565b60405180910390f35b600854600954600a545b604080519384526020840192909252908201526060016102b9565b6102fa6102f536600461355a565b610fde565b60405190151581526020016102b9565b6103317f000000000000000000000000000000000000000000000000000000000000000081565b6040516001600160a01b0390911681526020016102b9565b6103317f000000000000000000000000000000000000000000000000000000000000000081565b61038361037e366004613586565b61104b565b6040516102b991906135c1565b61039960025481565b6040519081526020016102b9565b6102cc611247565b6103996103bd366004613605565b60106020526000908152604090205481565b6102fa7f000000000000000000000000000000000000000000000000000000000000000081565b6102fa610404366004613622565b6112b6565b6102cc610417366004613663565b61137f565b610424601281565b60405160ff90911681526020016102b9565b610399600d5481565b600854600954604080517f000000000000000000000000000000000000000000000000000000000000000081527f000000000000000000000000000000000000000000000000000000000000000060208201529081019290925260608201527f0000000000000000000000000000000000000000000000000000000000000000151560808201526001600160a01b037f0000000000000000000000000000000000000000000000000000000000000000811660a08301527f00000000000000000000000000000000000000000000000000000000000000001660c082015260e0016102b9565b61039960085481565b61039961053c366004613605565b60116020526000908152604090205481565b61039961055c36600461355a565b6113b2565b61038361056f36600461367c565b61149a565b61039960095481565b61039961058b366004613605565b6114a9565b61039961059e366004613605565b60046020526000908152604090205481565b6103996105be366004613605565b60066020526000908152604090205481565b6105e36105de366004613605565b61170a565b604080519283526020830191909152016102b9565b610600611a27565b60408051825181526020808401519082015291810151908201526060016102b9565b6102ac611aa7565b6103317f000000000000000000000000000000000000000000000000000000000000000081565b604080516001600160a01b037f0000000000000000000000000000000000000000000000000000000000000000811682527f0000000000000000000000000000000000000000000000000000000000000000166020820152016102b9565b6103996106bd36600461367c565b611ab4565b6103996106d0366004613605565b600f6020526000908152604090205481565b6103996106f0366004613605565b60126020526000908152604090205481565b6102fa61071036600461355a565b611b21565b6102a2610723366004613605565b611b37565b610399600e5481565b610399600b5481565b610399600c5481565b610399600a5481565b6103317f000000000000000000000000000000000000000000000000000000000000000081565b6105e3611c55565b6102a26107893660046136b1565b611e4a565b61039961079c366004613728565b600360209081526000928352604080842090915290825290205481565b600754610399565b6103996107cf366004613761565b612152565b6103997f000000000000000000000000000000000000000000000000000000000000000081565b6102a2612240565b60135460011461081257600080fd5b60026013819055507f00000000000000000000000000000000000000000000000000000000000000006001600160a01b031663b187bd266040518163ffffffff1660e01b8152600401602060405180830381865afa158015610878573d6000803e3d6000fd5b505050506040513d601f19601f8201168201806040525081019061089c9190613786565b156108a657600080fd5b60008511806108b55750600084115b6108ec5760405162461bcd60e51b8152602060048201526003602482015262494f4160e81b60448201526064015b60405180910390fd5b600854600954818710801561090057508086105b6109315760405162461bcd60e51b8152602060048201526002602482015261125360f21b60448201526064016108e3565b6000807f00000000000000000000000000000000000000000000000000000000000000007f00000000000000000000000000000000000000000000000000000000000000006001600160a01b03898116908316148015906109a45750806001600160a01b0316896001600160a01b031614155b6109d55760405162461bcd60e51b8152602060048201526002602482015261125560f21b60448201526064016108e3565b8a156109e6576109e6828a8d61237a565b89156109f7576109f7818a8c61237a565b8615610a6457604051639a7bff7960e01b81526001600160a01b038a1690639a7bff7990610a319033908f908f908e908e906004016137a8565b600060405180830381600087803b158015610a4b57600080fd5b505af1158015610a5f573d6000803e3d6000fd5b505050505b6040516370a0823160e01b81523060048201526001600160a01b038316906370a0823190602401602060405180830381865afa158015610aa8573d6000803e3d6000fd5b505050506040513d601f19601f82011682018060405250810190610acc91906137f4565b6040516370a0823160e01b81523060048201529094506001600160a01b038216906370a0823190602401602060405180830381865afa158015610b13573d6000803e3d6000fd5b505050506040513d601f19601f82011682018060405250810190610b3791906137f4565b9250505060008985610b499190613823565b8311610b56576000610b6a565b610b608a86613823565b610b6a9084613823565b90506000610b788a86613823565b8311610b85576000610b99565b610b8f8a86613823565b610b999084613823565b90506000821180610baa5750600081115b610bdc5760405162461bcd60e51b815260206004820152600360248201526249494160e81b60448201526064016108e3565b7f00000000000000000000000000000000000000000000000000000000000000007f00000000000000000000000000000000000000000000000000000000000000008315610cef57604051632895a2f560e11b81527f000000000000000000000000000000000000000000000000000000000000000015156004820152610cef90612710906001600160a01b037f0000000000000000000000000000000000000000000000000000000000000000169063512b45ea90602401602060405180830381865afa158015610cb2573d6000803e3d6000fd5b505050506040513d601f19601f82011682018060405250810190610cd691906137f4565b610ce09087613836565b610cea919061384d565b612469565b8215610dc057604051632895a2f560e11b81527f000000000000000000000000000000000000000000000000000000000000000015156004820152610dc090612710906001600160a01b037f0000000000000000000000000000000000000000000000000000000000000000169063512b45ea90602401602060405180830381865afa158015610d83573d6000803e3d6000fd5b505050506040513d601f19601f82011682018060405250810190610da791906137f4565b610db19086613836565b610dbb919061384d565b612536565b6040516370a0823160e01b81523060048201526001600160a01b038316906370a0823190602401602060405180830381865afa158015610e04573d6000803e3d6000fd5b505050506040513d601f19601f82011682018060405250810190610e2891906137f4565b6040516370a0823160e01b81523060048201529096506001600160a01b038216906370a0823190602401602060405180830381865afa158015610e6f573d6000803e3d6000fd5b505050506040513d601f19601f82011682018060405250810190610e9391906137f4565b9450610e9f88886125fc565b610ea987876125fc565b1015610edb5760405162461bcd60e51b81526020600482015260016024820152604b60f81b60448201526064016108e3565b5050610ee984848888612748565b60408051838152602081018390529081018c9052606081018b90526001600160a01b038a169033907fd78ad95fa46c994b6551d0da85fc275fe613ce37657fb8d5e3d130840159d8229060800160405180910390a350506001601355505050505050505050565b60008054610f5d9061386f565b80601f0160208091040260200160405190810160405280929190818152602001828054610f899061386f565b8015610fd65780601f10610fab57610100808354040283529160200191610fd6565b820191906000526020600020905b815481529060010190602001808311610fb957829003601f168201915b505050505081565b3360008181526003602090815260408083206001600160a01b038716808552925280832085905551919290917f8c5be1e5ebec7d5bd14f71427d1e84f3dd0314c0f7b2291e5b200ac8c7c3b925906110399086815260200190565b60405180910390a35060015b92915050565b606060008367ffffffffffffffff811115611068576110686138a3565b604051908082528060200260200182016040528015611091578160200160208202803683370190505b506007549091506000906110a790600190613823565b905060006110b58587613836565b6110bf9083613823565b90506000805b83831015611237576110d787846138b9565b91506000600784815481106110ee576110ee6138cc565b90600052602060002090600302016000015460078481548110611113576111136138cc565b90600052602060002090600302016000015461112f9190613823565b905060008160078681548110611147576111476138cc565b9060005260206000209060030201600101546007868154811061116c5761116c6138cc565b9060005260206000209060030201600101546111889190613823565b611192919061384d565b9050600082600787815481106111aa576111aa6138cc565b906000526020600020906003020160020154600787815481106111cf576111cf6138cc565b9060005260206000209060030201600201546111eb9190613823565b6111f5919061384d565b90506112038c8e84846128dc565b888581518110611215576112156138cc565b602090810291909101015250505060010161123087846138b9565b92506110c5565b509293505050505b949350505050565b600b54600c544260008080611265600854600954600a549192909190565b9250925092508381146112ae57600061127e8286613823565b905061128a8185613836565b61129490886138b9565b96506112a08184613836565b6112aa90876138b9565b9550505b505050909192565b6001600160a01b0383166000818152600360209081526040808320338085529252822054919290919082148015906112f057506000198114155b156113665760006113018583613823565b6001600160a01b038881166000818152600360209081526040808320948916808452948252918290208590559051848152939450919290917f8c5be1e5ebec7d5bd14f71427d1e84f3dd0314c0f7b2291e5b200ac8c7c3b925910160405180910390a3505b611371868686612bd1565b6001925050505b9392505050565b6007818154811061138f57600080fd5b600091825260209091206003909102018054600182015460029092015490925083565b6000806113bd611a27565b90506000806113ca611247565b5084519193509150420361143257600780546113e890600290613823565b815481106113f8576113f86138cc565b9060005260206000209060030201604051806060016040529081600082015481526020016001820154815260200160028201548152505092505b82516000906114419042613823565b90506000818560200151856114569190613823565b611460919061384d565b90506000828660400151856114759190613823565b61147f919061384d565b905061148d888a84846128dc565b9998505050505050505050565b606061123f848484600161104b565b60006013546001146114ba57600080fd5b60026013556008546009546040516370a0823160e01b81523060048201526000907f00000000000000000000000000000000000000000000000000000000000000006001600160a01b0316906370a0823190602401602060405180830381865afa15801561152c573d6000803e3d6000fd5b505050506040513d601f19601f8201168201806040525081019061155091906137f4565b6040516370a0823160e01b81523060048201529091506000906001600160a01b037f000000000000000000000000000000000000000000000000000000000000000016906370a0823190602401602060405180830381865afa1580156115ba573d6000803e3d6000fd5b505050506040513d601f19601f820116820180604052508101906115de91906137f4565b905060006115ec8584613823565b905060006115fa8584613823565b600254909150600081900361163c576103e861161e61161985856125fc565b612c91565b6116289190613823565b975061163760006103e8612d01565b611671565b61166e8761164a8386613836565b611654919061384d565b8761165f8486613836565b611669919061384d565b612d94565b97505b600088116116a75760405162461bcd60e51b8152602060048201526003602482015262494c4d60e81b60448201526064016108e3565b6116b18989612d01565b6116bd85858989612748565b604080518481526020810184905233917f4c209b5fc8ad50758f13e2e1088ba56a560dff690a1c6fef26394f4c03821c4f910160405180910390a250506001601355509395945050505050565b60008060135460011461171c57600080fd5b60026013556008546009546040516370a0823160e01b81523060048201527f0000000000000000000000000000000000000000000000000000000000000000907f0000000000000000000000000000000000000000000000000000000000000000906000906001600160a01b038416906370a0823190602401602060405180830381865afa1580156117b2573d6000803e3d6000fd5b505050506040513d601f19601f820116820180604052508101906117d691906137f4565b6040516370a0823160e01b81523060048201529091506000906001600160a01b038416906370a0823190602401602060405180830381865afa158015611820573d6000803e3d6000fd5b505050506040513d601f19601f8201168201806040525081019061184491906137f4565b3060009081526004602052604090205460025491925090806118668584613836565b611870919061384d565b99508061187d8484613836565b611887919061384d565b985060008a1180156118995750600089115b6118cb5760405162461bcd60e51b815260206004820152600360248201526224a62160e91b60448201526064016108e3565b6118d53083612daa565b6118e0868c8c61237a565b6118eb858c8b61237a565b6040516370a0823160e01b81523060048201526001600160a01b038716906370a0823190602401602060405180830381865afa15801561192f573d6000803e3d6000fd5b505050506040513d601f19601f8201168201806040525081019061195391906137f4565b6040516370a0823160e01b81523060048201529094506001600160a01b038616906370a0823190602401602060405180830381865afa15801561199a573d6000803e3d6000fd5b505050506040513d601f19601f820116820180604052508101906119be91906137f4565b92506119cc84848a8a612748565b604080518b8152602081018b90526001600160a01b038d169133917fdccd412f0b1252819cb1fd330b93224ca42612892bb3f4f789976e6d81936496910160405180910390a350505050505050506001601381905550915091565b611a4b60405180606001604052806000815260200160008152602001600081525090565b60078054611a5b90600190613823565b81548110611a6b57611a6b6138cc565b90600052602060002090600302016040518060600160405290816000820154815260200160018201548152602001600282015481525050905090565b60018054610f5d9061386f565b600080611ac4858585600161104b565b90506000805b8251811015611b0c57828181518110611ae557611ae56138cc565b602002602001015182611af891906138b9565b915080611b04816138e2565b915050611aca565b50611b17848261384d565b9695505050505050565b6000611b2e338484612bd1565b50600192915050565b601354600114611b4657600080fd5b60026013556008546040516370a0823160e01b81523060048201527f0000000000000000000000000000000000000000000000000000000000000000917f000000000000000000000000000000000000000000000000000000000000000091611c139184918691906001600160a01b038416906370a08231906024015b602060405180830381865afa158015611be0573d6000803e3d6000fd5b505050506040513d601f19601f82011682018060405250810190611c0491906137f4565b611c0e9190613823565b61237a565b6009546040516370a0823160e01b8152306004820152611c4b9183918691906001600160a01b038416906370a0823190602401611bc3565b5050600160135550565b600080336001600160a01b037f0000000000000000000000000000000000000000000000000000000000000000168103611d0e577f00000000000000000000000000000000000000000000000000000000000000006001600160a01b031663a80bf3e66040518163ffffffff1660e01b8152600401602060405180830381865afa158015611ce7573d6000803e3d6000fd5b505050506040513d601f19601f82011682018060405250810190611d0b91906138fb565b90505b611d1781612e35565b6001600160a01b038116600090815260116020908152604080832054601290925290912054909350915082151580611d4f5750600082115b15611e45576001600160a01b0381811660009081526011602090815260408083208390556012909152808220919091555163299e7ae760e11b815233600482015260248101859052604481018490527f00000000000000000000000000000000000000000000000000000000000000009091169063533cf5ce90606401600060405180830381600087803b158015611de657600080fd5b505af1158015611dfa573d6000803e3d6000fd5b505060408051868152602081018690523393506001600160a01b03851692507f865ca08d59f5cb456e85cd2f7ef63664ea4f73327414e9d8152c4158b0e94645910160405180910390a35b509091565b42841015611e8a5760405162461bcd60e51b815260206004820152600d60248201526c14185a5c8e8811561412549151609a1b60448201526064016108e3565b7f8b73c3c69bb8fe3d512ecc4cf759cc79239f7b179b0ffacaa9a75d522b39400f6000604051611eba9190613918565b60408051918290038220828201825260018352603160f81b6020938401528151928301939093528101919091527fc89efdaa54c0f20c7adf612882df0950f5a951637e0307cdcb4c672f298b8bc660608201524660808201523060a082015260c00160408051601f19818403018152918152815160209283012060058190556001600160a01b038a166000908152600690935290822080547f6e71edae12b1b97f4d1f60370fef10105fa2faae0126114a169c64845d6126c9918b918b918b919087611f85836138e2565b909155506040805160208101969096526001600160a01b0394851690860152929091166060840152608083015260a082015260c0810187905260e00160405160208183030381529060405280519060200120604051602001611ffe92919061190160f01b81526002810192909252602282015260420190565b60408051601f198184030181528282528051602091820120600080855291840180845281905260ff88169284019290925260608301869052608083018590529092509060019060a0016020604051602081039080840390855afa158015612069573d6000803e3d6000fd5b5050604051601f1901519150506001600160a01b0381161580159061209f5750886001600160a01b0316816001600160a01b0316145b6120eb5760405162461bcd60e51b815260206004820152601760248201527f506169723a20494e56414c49445f5349474e415455524500000000000000000060448201526064016108e3565b6001600160a01b038981166000818152600360209081526040808320948d16808452948252918290208b905590518a81527f8c5be1e5ebec7d5bd14f71427d1e84f3dd0314c0f7b2291e5b200ac8c7c3b925910160405180910390a3505050505050505050565b600854600954604051632895a2f560e11b81527f0000000000000000000000000000000000000000000000000000000000000000151560048201526000929190612710907f00000000000000000000000000000000000000000000000000000000000000006001600160a01b03169063512b45ea90602401602060405180830381865afa1580156121e7573d6000803e3d6000fd5b505050506040513d601f19601f8201168201806040525081019061220b91906137f4565b6122159087613836565b61221f919061384d565b6122299086613823565b9450612237858584846128dc565b95945050505050565b60135460011461224f57600080fd5b60026013556040516370a0823160e01b8152306004820152612373907f00000000000000000000000000000000000000000000000000000000000000006001600160a01b0316906370a0823190602401602060405180830381865afa1580156122bc573d6000803e3d6000fd5b505050506040513d601f19601f820116820180604052508101906122e091906137f4565b6040516370a0823160e01b81523060048201527f00000000000000000000000000000000000000000000000000000000000000006001600160a01b0316906370a0823190602401602060405180830381865afa158015612344573d6000803e3d6000fd5b505050506040513d601f19601f8201168201806040525081019061236891906137f4565b600854600954612748565b6001601355565b6000836001600160a01b03163b1161239157600080fd5b604080516001600160a01b038481166024830152604480830185905283518084039091018152606490920183526020820180516001600160e01b031663a9059cbb60e01b17905291516000928392908716916123ed91906139b7565b6000604051808303816000865af19150503d806000811461242a576040519150601f19603f3d011682016040523d82523d6000602084013e61242f565b606091505b50915091508180156124595750805115806124595750808060200190518101906124599190613786565b61246257600080fd5b5050505050565b6124b47f00000000000000000000000000000000000000000000000000000000000000007f00000000000000000000000000000000000000000000000000000000000000008361237a565b6002546000906124cc83670de0b6b3a7640000613836565b6124d6919061384d565b905080156124f65780600d60008282546124f091906138b9565b90915550505b604080518381526000602082015233917f112c256902bf554b6ed882d2936687aaeb4225e8cd5b51303c90ca6cf43a860291015b60405180910390a25050565b6125817f00000000000000000000000000000000000000000000000000000000000000007f00000000000000000000000000000000000000000000000000000000000000008361237a565b60025460009061259983670de0b6b3a7640000613836565b6125a3919061384d565b905080156125c35780600e60008282546125bd91906138b9565b90915550505b60408051600081526020810184905233917f112c256902bf554b6ed882d2936687aaeb4225e8cd5b51303c90ca6cf43a8602910161252a565b60007f0000000000000000000000000000000000000000000000000000000000000000156127375760007f000000000000000000000000000000000000000000000000000000000000000061265985670de0b6b3a7640000613836565b612663919061384d565b905060007f000000000000000000000000000000000000000000000000000000000000000061269a85670de0b6b3a7640000613836565b6126a4919061384d565b90506000670de0b6b3a76400006126bb8385613836565b6126c5919061384d565b90506000670de0b6b3a76400006126dc8480613836565b6126e6919061384d565b670de0b6b3a76400006126f98680613836565b612703919061384d565b61270d91906138b9565b9050670de0b6b3a76400006127228284613836565b61272c919061384d565b945050505050611045565b6127418284613836565b9050611045565b600a54429060009061275a9083613823565b905060008111801561276b57508315155b801561277657508215155b156127bd576127858185613836565b600b600082825461279691906138b9565b909155506127a690508184613836565b600c60008282546127b791906138b9565b90915550505b60006127c7611a27565b80519091506127d69084613823565b915061070882111561288b5760408051606081018252848152600b5460208201908152600c549282019283526007805460018101825560009190915291517fa66cc928b5edb82af9bd49922954155ab7b0942694bea4ce44661d9a8736c688600390930292830155517fa66cc928b5edb82af9bd49922954155ab7b0942694bea4ce44661d9a8736c68982015590517fa66cc928b5edb82af9bd49922954155ab7b0942694bea4ce44661d9a8736c68a909101555b60088790556009869055600a83905560408051888152602081018890527fcf2aa50876cdfbb541206f89af0ee78d44a2abf8d328e37fa4917f982149848a910160405180910390a150505050505050565b60007f000000000000000000000000000000000000000000000000000000000000000015612b5f57600061291084846125fc565b90507f000000000000000000000000000000000000000000000000000000000000000061294585670de0b6b3a7640000613836565b61294f919061384d565b93507f000000000000000000000000000000000000000000000000000000000000000061298484670de0b6b3a7640000613836565b61298e919061384d565b92506000807f00000000000000000000000000000000000000000000000000000000000000006001600160a01b0316876001600160a01b0316146129d35784866129d6565b85855b915091507f00000000000000000000000000000000000000000000000000000000000000006001600160a01b0316876001600160a01b031614612a55577f0000000000000000000000000000000000000000000000000000000000000000612a4689670de0b6b3a7640000613836565b612a50919061384d565b612a92565b7f0000000000000000000000000000000000000000000000000000000000000000612a8889670de0b6b3a7640000613836565b612a92919061384d565b97506000612aaa612aa3848b6138b9565b8584613241565b612ab49083613823565b9050670de0b6b3a76400007f00000000000000000000000000000000000000000000000000000000000000006001600160a01b0316896001600160a01b031614612b1e577f0000000000000000000000000000000000000000000000000000000000000000612b40565b7f00000000000000000000000000000000000000000000000000000000000000005b612b4a9083613836565b612b54919061384d565b94505050505061123f565b6000807f00000000000000000000000000000000000000000000000000000000000000006001600160a01b0316866001600160a01b031614612ba2578385612ba5565b84845b9092509050612bb487836138b9565b612bbe8289613836565b612bc8919061384d565b9250505061123f565b612bda83612e35565b612be382612e35565b6001600160a01b03831660009081526004602052604081208054839290612c0b908490613823565b90915550506001600160a01b03821660009081526004602052604081208054839290612c389084906138b9565b92505081905550816001600160a01b0316836001600160a01b03167fddf252ad1be2c89b69c2b068fc378daa952ba7f163c4a11628f55a4df523b3ef83604051612c8491815260200190565b60405180910390a3505050565b60006003821115612cf25750806000612cab60028361384d565b612cb69060016138b9565b90505b81811015612cec57905080600281612cd1818661384d565b612cdb91906138b9565b612ce5919061384d565b9050612cb9565b50919050565b8115612cfc575060015b919050565b612d0a82612e35565b8060026000828254612d1c91906138b9565b90915550506001600160a01b03821660009081526004602052604081208054839290612d499084906138b9565b90915550506040518181526001600160a01b038316906000907fddf252ad1be2c89b69c2b068fc378daa952ba7f163c4a11628f55a4df523b3ef906020015b60405180910390a35050565b6000818310612da35781611378565b5090919050565b612db382612e35565b8060026000828254612dc59190613823565b90915550506001600160a01b03821660009081526004602052604081208054839290612df2908490613823565b90915550506040518181526000906001600160a01b038416907fddf252ad1be2c89b69c2b068fc378daa952ba7f163c4a11628f55a4df523b3ef90602001612d88565b6001600160a01b038116600090815260046020526040902054801561320f576001600160a01b0382166000908152600f60209081526040808320805460108085529285208054600d54600e54948190559490955282905593612e978584613823565b90506000612ea58584613823565b90508115613056576000670de0b6b3a7640000612ec2848a613836565b612ecc919061384d565b9050612710612efb7f000000000000000000000000000000000000000000000000000000000000000083613836565b612f05919061384d565b612f0f9082613823565b6001600160a01b038a1660009081526011602052604081208054909190612f379084906138b9565b90915550507f00000000000000000000000000000000000000000000000000000000000000001561305457612710612f8f7f000000000000000000000000000000000000000000000000000000000000000083613836565b612f99919061384d565b601160007f00000000000000000000000000000000000000000000000000000000000000006001600160a01b031663a80bf3e66040518163ffffffff1660e01b8152600401602060405180830381865afa158015612ffb573d6000803e3d6000fd5b505050506040513d601f19601f8201168201806040525081019061301f91906138fb565b6001600160a01b03166001600160a01b03168152602001908152602001600020600082825461304e91906138b9565b90915550505b505b8015613205576000670de0b6b3a7640000613071838a613836565b61307b919061384d565b90506127106130aa7f000000000000000000000000000000000000000000000000000000000000000083613836565b6130b4919061384d565b6130be9082613823565b6001600160a01b038a16600090815260126020526040812080549091906130e69084906138b9565b90915550507f0000000000000000000000000000000000000000000000000000000000000000156132035761271061313e7f000000000000000000000000000000000000000000000000000000000000000083613836565b613148919061384d565b601260007f00000000000000000000000000000000000000000000000000000000000000006001600160a01b031663a80bf3e66040518163ffffffff1660e01b8152600401602060405180830381865afa1580156131aa573d6000803e3d6000fd5b505050506040513d601f19601f820116820180604052508101906131ce91906138fb565b6001600160a01b03166001600160a01b0316815260200190815260200160002060008282546131fd91906138b9565b90915550505b505b5050505050505050565b600d546001600160a01b0383166000908152600f6020908152604080832093909355600e546010909152919020555050565b6000805b60ff8110156133475782600061325b8783613350565b9050858110156132ab57600061327188876133ed565b61327b8389613823565b61328d90670de0b6b3a7640000613836565b613297919061384d565b90506132a381876138b9565b9550506132ed565b60006132b788876133ed565b6132c18884613823565b6132d390670de0b6b3a7640000613836565b6132dd919061384d565b90506132e98187613823565b9550505b818511156133165760016133018387613823565b1161331157849350505050611378565b613332565b60016133228684613823565b1161333257849350505050611378565b5050808061333f906138e2565b915050613245565b50909392505050565b6000670de0b6b3a7640000828185816133698280613836565b613373919061384d565b61337d9190613836565b613387919061384d565b6133919190613836565b61339b919061384d565b670de0b6b3a76400008084816133b18280613836565b6133bb919061384d565b6133c59190613836565b6133cf919061384d565b6133d99086613836565b6133e3919061384d565b61137891906138b9565b6000670de0b6b3a764000083816134048280613836565b61340e919061384d565b6134189190613836565b613422919061384d565b670de0b6b3a7640000806134368580613836565b613440919061384d565b61344b866003613836565b6133d99190613836565b6001600160a01b038116811461346a57600080fd5b50565b60008060008060006080868803121561348557600080fd5b8535945060208601359350604086013561349e81613455565b9250606086013567ffffffffffffffff808211156134bb57600080fd5b818801915088601f8301126134cf57600080fd5b8135818111156134de57600080fd5b8960208285010111156134f057600080fd5b9699959850939650602001949392505050565b60005b8381101561351e578181015183820152602001613506565b50506000910152565b6020815260008251806020840152613546816040850160208701613503565b601f01601f19169190910160400192915050565b6000806040838503121561356d57600080fd5b823561357881613455565b946020939093013593505050565b6000806000806080858703121561359c57600080fd5b84356135a781613455565b966020860135965060408601359560600135945092505050565b6020808252825182820181905260009190848201906040850190845b818110156135f9578351835292840192918401916001016135dd565b50909695505050505050565b60006020828403121561361757600080fd5b813561137881613455565b60008060006060848603121561363757600080fd5b833561364281613455565b9250602084013561365281613455565b929592945050506040919091013590565b60006020828403121561367557600080fd5b5035919050565b60008060006060848603121561369157600080fd5b833561369c81613455565b95602085013595506040909401359392505050565b600080600080600080600060e0888a0312156136cc57600080fd5b87356136d781613455565b965060208801356136e781613455565b95506040880135945060608801359350608088013560ff8116811461370b57600080fd5b9699959850939692959460a0840135945060c09093013592915050565b6000806040838503121561373b57600080fd5b823561374681613455565b9150602083013561375681613455565b809150509250929050565b6000806040838503121561377457600080fd5b82359150602083013561375681613455565b60006020828403121561379857600080fd5b8151801515811461137857600080fd5b60018060a01b038616815284602082015283604082015260806060820152816080820152818360a0830137600081830160a090810191909152601f909201601f19160101949350505050565b60006020828403121561380657600080fd5b5051919050565b634e487b7160e01b600052601160045260246000fd5b818103818111156110455761104561380d565b80820281158282048414176110455761104561380d565b60008261386a57634e487b7160e01b600052601260045260246000fd5b500490565b600181811c9082168061388357607f821691505b602082108103612cec57634e487b7160e01b600052602260045260246000fd5b634e487b7160e01b600052604160045260246000fd5b808201808211156110455761104561380d565b634e487b7160e01b600052603260045260246000fd5b6000600182016138f4576138f461380d565b5060010190565b60006020828403121561390d57600080fd5b815161137881613455565b600080835481600182811c91508083168061393457607f831692505b6020808410820361395357634e487b7160e01b86526022600452602486fd5b818015613967576001811461397c576139a9565b60ff19861689528415158502890196506139a9565b60008a81526020902060005b868110156139a15781548b820152908501908301613988565b505084890196505b509498975050505050505050565b600082516139c9818460208701613503565b919091019291505056fea26469706673582212205c2340f2ff25d0648b2ca54cf9cf5112139f13dc03943d832d1c2323b97cc43b64736f6c6343000814003360e060405234801561001057600080fd5b5060405161036438038061036483398101604081905261002f91610066565b336080526001600160a01b0391821660a0521660c052610099565b80516001600160a01b038116811461006157600080fd5b919050565b6000806040838503121561007957600080fd5b6100828361004a565b91506100906020840161004a565b90509250929050565b60805160a05160c05161029f6100c5600039600060b6015260006085015260006050015261029f6000f3fe608060405234801561001057600080fd5b506004361061002b5760003560e01c8063533cf5ce14610030575b600080fd5b61004361003e3660046101d0565b610045565b005b336001600160a01b037f0000000000000000000000000000000000000000000000000000000000000000161461007a57600080fd5b81156100ab576100ab7f000000000000000000000000000000000000000000000000000000000000000084846100e1565b80156100dc576100dc7f000000000000000000000000000000000000000000000000000000000000000084836100e1565b505050565b6000836001600160a01b03163b116100f857600080fd5b604080516001600160a01b038481166024830152604480830185905283518084039091018152606490920183526020820180516001600160e01b031663a9059cbb60e01b17905291516000928392908716916101549190610211565b6000604051808303816000865af19150503d8060008114610191576040519150601f19603f3d011682016040523d82523d6000602084013e610196565b606091505b50915091508180156101c05750805115806101c05750808060200190518101906101c09190610240565b6101c957600080fd5b5050505050565b6000806000606084860312156101e557600080fd5b83356001600160a01b03811681146101fc57600080fd5b95602085013595506040909401359392505050565b6000825160005b818110156102325760208186018101518583015201610218565b506000920191825250919050565b60006020828403121561025257600080fd5b8151801515811461026257600080fd5b939250505056fea264697066735822122018e0b6fd09fee6f66fed2e5d04b50e3c6109e5d5b9c896b0ffc3bc90ce8c017c64736f6c63430008140033a26469706673582212201e63bfcf04021b82013c461a17c916c17f1d4c8e2c1c6bc946635a98bf5daecc64736f6c63430008140033",
  "devdoc": {
    "kind": "dev",
    "methods": {},
    "version": 1
  },
  "userdoc": {
    "kind": "user",
    "methods": {},
    "version": 1
  },
  "storageLayout": {
    "storage": [
      {
        "astId": 5549,
        "contract": "contracts/factories/PairFactory.sol:PairFactory",
        "label": "isPaused",
        "offset": 0,
        "slot": "0",
        "type": "t_bool"
      },
      {
        "astId": 5551,
        "contract": "contracts/factories/PairFactory.sol:PairFactory",
        "label": "pauser",
        "offset": 1,
        "slot": "0",
        "type": "t_address"
      },
      {
        "astId": 5553,
        "contract": "contracts/factories/PairFactory.sol:PairFactory",
        "label": "pendingPauser",
        "offset": 0,
        "slot": "1",
        "type": "t_address"
      },
      {
        "astId": 5555,
        "contract": "contracts/factories/PairFactory.sol:PairFactory",
        "label": "stableFee",
        "offset": 0,
        "slot": "2",
        "type": "t_uint256"
      },
      {
        "astId": 5557,
        "contract": "contracts/factories/PairFactory.sol:PairFactory",
        "label": "volatileFee",
        "offset": 0,
        "slot": "3",
        "type": "t_uint256"
      },
      {
        "astId": 5562,
        "contract": "contracts/factories/PairFactory.sol:PairFactory",
        "label": "feeManager",
        "offset": 0,
        "slot": "4",
        "type": "t_address"
      },
      {
        "astId": 5564,
        "contract": "contracts/factories/PairFactory.sol:PairFactory",
        "label": "pendingFeeManager",
        "offset": 0,
        "slot": "5",
        "type": "t_address"
      },
      {
        "astId": 5566,
        "contract": "contracts/factories/PairFactory.sol:PairFactory",
        "label": "router",
        "offset": 0,
        "slot": "6",
        "type": "t_address"
      },
      {
        "astId": 5574,
        "contract": "contracts/factories/PairFactory.sol:PairFactory",
        "label": "getPair",
        "offset": 0,
        "slot": "7",
        "type": "t_mapping(t_address,t_mapping(t_address,t_mapping(t_bool,t_address)))"
      },
      {
        "astId": 5577,
        "contract": "contracts/factories/PairFactory.sol:PairFactory",
        "label": "allPairs",
        "offset": 0,
        "slot": "8",
        "type": "t_array(t_address)dyn_storage"
      },
      {
        "astId": 5581,
        "contract": "contracts/factories/PairFactory.sol:PairFactory",
        "label": "isPair",
        "offset": 0,
        "slot": "9",
        "type": "t_mapping(t_address,t_bool)"
      },
      {
        "astId": 5583,
        "contract": "contracts/factories/PairFactory.sol:PairFactory",
        "label": "_temp0",
        "offset": 0,
        "slot": "10",
        "type": "t_address"
      },
      {
        "astId": 5585,
        "contract": "contracts/factories/PairFactory.sol:PairFactory",
        "label": "_temp1",
        "offset": 0,
        "slot": "11",
        "type": "t_address"
      },
      {
        "astId": 5587,
        "contract": "contracts/factories/PairFactory.sol:PairFactory",
        "label": "_temp",
        "offset": 20,
        "slot": "11",
        "type": "t_bool"
      },
      {
        "astId": 5589,
        "contract": "contracts/factories/PairFactory.sol:PairFactory",
        "label": "_tempP",
        "offset": 0,
        "slot": "12",
        "type": "t_uint256"
      },
      {
        "astId": 5591,
        "contract": "contracts/factories/PairFactory.sol:PairFactory",
        "label": "_tempF",
        "offset": 0,
        "slot": "13",
        "type": "t_address"
      }
    ],
    "types": {
      "t_address": {
        "encoding": "inplace",
        "label": "address",
        "numberOfBytes": "20"
      },
      "t_array(t_address)dyn_storage": {
        "base": "t_address",
        "encoding": "dynamic_array",
        "label": "address[]",
        "numberOfBytes": "32"
      },
      "t_bool": {
        "encoding": "inplace",
        "label": "bool",
        "numberOfBytes": "1"
      },
      "t_mapping(t_address,t_bool)": {
        "encoding": "mapping",
        "key": "t_address",
        "label": "mapping(address => bool)",
        "numberOfBytes": "32",
        "value": "t_bool"
      },
      "t_mapping(t_address,t_mapping(t_address,t_mapping(t_bool,t_address)))": {
        "encoding": "mapping",
        "key": "t_address",
        "label": "mapping(address => mapping(address => mapping(bool => address)))",
        "numberOfBytes": "32",
        "value": "t_mapping(t_address,t_mapping(t_bool,t_address))"
      },
      "t_mapping(t_address,t_mapping(t_bool,t_address))": {
        "encoding": "mapping",
        "key": "t_address",
        "label": "mapping(address => mapping(bool => address))",
        "numberOfBytes": "32",
        "value": "t_mapping(t_bool,t_address)"
      },
      "t_mapping(t_bool,t_address)": {
        "encoding": "mapping",
        "key": "t_bool",
        "label": "mapping(bool => address)",
        "numberOfBytes": "32",
        "value": "t_address"
      },
      "t_uint256": {
        "encoding": "inplace",
        "label": "uint256",
        "numberOfBytes": "32"
      }
    }
  }
}